:100000000C9434000C9449000C9449000C94490061
:100010000C9449000C9449000C9449000C9449003C
:100020000C9449000C9449000C9449000C9449002C
:100030000C9449000C9449000C9449000C9449001C
:100040000C9449000C9449000C9449000C9449000C
:100050000C9449000C9449000C9449000C944900FC
:100060000C9449000C94490011241FBECFEFD8E036
:10007000DEBFCDBF11E0A0E0B1E0E2EBF4E002C0F2
:1000800005900D92A031B107D9F70E944E020C9451
:1000900057020C9400008AB18E7F8AB98AB18D7F95
:1000A0008AB98BB181608BB98BB182608BB98AB10F
:1000B00084608AB999B129B181E098272695822771
:1000C0008170892369F08BB184608BB92FE38DE057
:1000D00093E0215080409040E1F700C00000089577
:1000E0008BB18B7F8BB92FE38DE093E02150804063
:1000F0009040E1F700C00000089595B19F70282F4F
:10010000207F922B95B995B19B7F95B995B1986059
:1001100095B900C000C0000095B1977F95B933E54F
:100120003A95F1F7000025B130E1839FC001112419
:10013000922F9F70892B85B985B1886085B900C0E1
:1001400000C0000085B1877F85B983ED90E30197FA
:10015000F1F700C00000089595B19F70282F207F0F
:10016000922B95B995B1946095B995B1986095B970
:1001700000C000C0000095B1977F95B933E53A956E
:10018000F1F7000025B130E1839FC0011124922FC7
:100190009F70892B85B985B1886085B900C000C082
:1001A000000085B1877F85B983ED90E30197F1F772
:1001B00000C0000008958FEF84B983ED90E30197AC
:1001C000F1F700C0000082E00E947D0088E20E94FA
:1001D0007D008CE00E947D0086E00E947D0081E031
:1001E0000E947D0081EE94E00197F1F700C00000CD
:1001F00008950F931F93CF93DF938C01C0E0D0E05D
:1002000003C00E94AC002196F801EC0FFD1F808115
:100210008111F7CFDF91CF911F910F91089581E068
:100220000E947D0083ED90E30197F1F700C000008C
:1002300080E80E947D00089580E480937C0087E838
:1002400080937A000895ECE7F0E09081987F9083A6
:1002500087709081892B8083EAE7F0E08081806459
:10026000808380917A0084FFFCCFEAE7F0E0808110
:1002700080618083809178009091790008950E9438
:100280001C0180E00E9423018FE493EC0197F1F7B9
:1002900000C000000895CF93DF93CDB7DEB7A397DA
:1002A0000FB6F894DEBF0FBECDBF8FE0E0E0F1E007
:1002B000DE01559601900D928A95E1F7E0E8F0E0B5
:1002C000808183688083E1E8F0E080818B608083B7
:1002D00084B1826084B90E943F01E8E7F0E0808148
:1002E000918180819181823D910570F50E940F017D
:1002F0008DEC90E0909389008093880082E389835D
:1003000080E38A838FED8B8383E48C8380E28D830B
:100310001E82CE0145960E94F90080EC0E947D006D
:10032000CE0101960E94F9008FE39FE10197F1F75A
:1003300000C000009FEF29EF80E0915020408040F6
:10034000E1F700C00000A0C0809178009091790092
:10035000823D910578F180917800909179008E3FEF
:10036000914040F50E940F018AE991E09093890045
:100370008093880082E3898385E38A838FED8B8372
:1003800083E48C8380E28D831E82CE0145960E9499
:10039000F90080EC0E947D00CE0101960E94F900D8
:1003A0008FEF99EF20E0815090402040E1F700C0AE
:1003B00000006AC080917800909179008E3F914052
:1003C00078F18091780090917900863C924040F5D8
:1003D0000E940F018DEC92E0909389008093880039
:1003E00082E3898389E38A838FED8B8383E48C8323
:1003F00080E28D831E82CE0145960E94F90080EC3A
:100400000E947D00CE0101960E94F9008FEF99EFC6
:1004100020E0815090402040E1F700C0000034C04F
:100420008091780090917900863C924068F18091AB
:100430007800909179008130944030F50E940F014E
:100440008EEC93E0909389008093880083E3898306
:100450008A838FED8B8383E48C8380E28D831E827D
:10046000CE0145960E94F90080EC0E947D00CE01ED
:1004700001960E94F9008FEF99EF20E081509040A3
:100480002040E1F700C0000080E0A3960FB6F8948A
:10049000DEBF0FBECDBFDF91CF9108950E94DB007C
:1004A0000E944B000E943F010E944B01F9CFF8943B
:0204B000FFCF7C
:1004B20054656D7065726174757265203A29000029
:00000001FF
